{
  "_format": "hh-sol-artifact-1",
  "contractName": "PokerGame",
  "sourceName": "contracts/PokerGame.sol",
  "abi": [
    {
      "inputs": [],
      "stateMutability": "nonpayable",
      "type": "constructor"
    },
    {
      "anonymous": false,
      "inputs": [
        {
          "indexed": true,
          "internalType": "address",
          "name": "player",
          "type": "address"
        },
        {
          "indexed": false,
          "internalType": "uint256",
          "name": "amount",
          "type": "uint256"
        }
      ],
      "name": "BetPlaced",
      "type": "event"
    },
    {
      "anonymous": false,
      "inputs": [
        {
          "indexed": true,
          "internalType": "address",
          "name": "player",
          "type": "address"
        },
        {
          "indexed": false,
          "internalType": "uint256",
          "name": "cardIndex",
          "type": "uint256"
        }
      ],
      "name": "CardDealt",
      "type": "event"
    },
    {
      "anonymous": false,
      "inputs": [
        {
          "indexed": true,
          "internalType": "address",
          "name": "winner",
          "type": "address"
        },
        {
          "indexed": false,
          "internalType": "uint256",
          "name": "amount",
          "type": "uint256"
        }
      ],
      "name": "GameFinished",
      "type": "event"
    },
    {
      "anonymous": false,
      "inputs": [],
      "name": "GameStarted",
      "type": "event"
    },
    {
      "anonymous": false,
      "inputs": [
        {
          "indexed": true,
          "internalType": "address",
          "name": "player",
          "type": "address"
        }
      ],
      "name": "PlayerFolded",
      "type": "event"
    },
    {
      "anonymous": false,
      "inputs": [
        {
          "indexed": true,
          "internalType": "address",
          "name": "player",
          "type": "address"
        },
        {
          "indexed": false,
          "internalType": "uint256",
          "name": "playerIndex",
          "type": "uint256"
        }
      ],
      "name": "PlayerJoined",
      "type": "event"
    },
    {
      "inputs": [],
      "name": "FHE_MODULUS",
      "outputs": [
        {
          "internalType": "uint256",
          "name": "",
          "type": "uint256"
        }
      ],
      "stateMutability": "view",
      "type": "function"
    },
    {
      "inputs": [],
      "name": "bettingRound",
      "outputs": [
        {
          "internalType": "uint256",
          "name": "",
          "type": "uint256"
        }
      ],
      "stateMutability": "view",
      "type": "function"
    },
    {
      "inputs": [],
      "name": "bigBlind",
      "outputs": [
        {
          "internalType": "uint256",
          "name": "",
          "type": "uint256"
        }
      ],
      "stateMutability": "view",
      "type": "function"
    },
    {
      "inputs": [
        {
          "internalType": "address",
          "name": "player",
          "type": "address"
        }
      ],
      "name": "canPlayerAct",
      "outputs": [
        {
          "internalType": "bool",
          "name": "",
          "type": "bool"
        }
      ],
      "stateMutability": "view",
      "type": "function"
    },
    {
      "inputs": [
        {
          "internalType": "uint256",
          "name": "",
          "type": "uint256"
        }
      ],
      "name": "communityCards",
      "outputs": [
        {
          "internalType": "uint256",
          "name": "encryptedValue",
          "type": "uint256"
        },
        {
          "internalType": "uint256",
          "name": "nonce",
          "type": "uint256"
        },
        {
          "internalType": "bool",
          "name": "isRevealed",
          "type": "bool"
        }
      ],
      "stateMutability": "view",
      "type": "function"
    },
    {
      "inputs": [],
      "name": "communityCardsRevealed",
      "outputs": [
        {
          "internalType": "uint256",
          "name": "",
          "type": "uint256"
        }
      ],
      "stateMutability": "view",
      "type": "function"
    },
    {
      "inputs": [],
      "name": "currentBet",
      "outputs": [
        {
          "internalType": "uint256",
          "name": "",
          "type": "uint256"
        }
      ],
      "stateMutability": "view",
      "type": "function"
    },
    {
      "inputs": [],
      "name": "currentPlayerIndex",
      "outputs": [
        {
          "internalType": "uint256",
          "name": "",
          "type": "uint256"
        }
      ],
      "stateMutability": "view",
      "type": "function"
    },
    {
      "inputs": [],
      "name": "currentPlayers",
      "outputs": [
        {
          "internalType": "uint256",
          "name": "",
          "type": "uint256"
        }
      ],
      "stateMutability": "view",
      "type": "function"
    },
    {
      "inputs": [],
      "name": "dealerPosition",
      "outputs": [
        {
          "internalType": "uint256",
          "name": "",
          "type": "uint256"
        }
      ],
      "stateMutability": "view",
      "type": "function"
    },
    {
      "inputs": [
        {
          "internalType": "uint256",
          "name": "",
          "type": "uint256"
        }
      ],
      "name": "deck",
      "outputs": [
        {
          "internalType": "uint256",
          "name": "",
          "type": "uint256"
        }
      ],
      "stateMutability": "view",
      "type": "function"
    },
    {
      "inputs": [],
      "name": "deckIndex",
      "outputs": [
        {
          "internalType": "uint256",
          "name": "",
          "type": "uint256"
        }
      ],
      "stateMutability": "view",
      "type": "function"
    },
    {
      "inputs": [
        {
          "internalType": "uint256",
          "name": "encryptedA",
          "type": "uint256"
        },
        {
          "internalType": "uint256",
          "name": "encryptedB",
          "type": "uint256"
        }
      ],
      "name": "fheAdd",
      "outputs": [
        {
          "internalType": "uint256",
          "name": "",
          "type": "uint256"
        }
      ],
      "stateMutability": "pure",
      "type": "function"
    },
    {
      "inputs": [
        {
          "internalType": "uint256",
          "name": "encryptedA",
          "type": "uint256"
        },
        {
          "internalType": "uint256",
          "name": "encryptedB",
          "type": "uint256"
        }
      ],
      "name": "fheCompare",
      "outputs": [
        {
          "internalType": "bool",
          "name": "",
          "type": "bool"
        }
      ],
      "stateMutability": "pure",
      "type": "function"
    },
    {
      "inputs": [],
      "name": "fold",
      "outputs": [],
      "stateMutability": "nonpayable",
      "type": "function"
    },
    {
      "inputs": [],
      "name": "gameOwner",
      "outputs": [
        {
          "internalType": "address",
          "name": "",
          "type": "address"
        }
      ],
      "stateMutability": "view",
      "type": "function"
    },
    {
      "inputs": [],
      "name": "gameState",
      "outputs": [
        {
          "internalType": "enum PokerGame.GameState",
          "name": "",
          "type": "uint8"
        }
      ],
      "stateMutability": "view",
      "type": "function"
    },
    {
      "inputs": [],
      "name": "getCommunityCards",
      "outputs": [
        {
          "internalType": "uint256[5]",
          "name": "encryptedCards",
          "type": "uint256[5]"
        },
        {
          "internalType": "uint256[5]",
          "name": "nonces",
          "type": "uint256[5]"
        },
        {
          "internalType": "uint256",
          "name": "revealed",
          "type": "uint256"
        }
      ],
      "stateMutability": "view",
      "type": "function"
    },
    {
      "inputs": [],
      "name": "getGameInfo",
      "outputs": [
        {
          "internalType": "enum PokerGame.GameState",
          "name": "_gameState",
          "type": "uint8"
        },
        {
          "internalType": "uint256",
          "name": "_currentPlayers",
          "type": "uint256"
        },
        {
          "internalType": "uint256",
          "name": "_pot",
          "type": "uint256"
        },
        {
          "internalType": "uint256",
          "name": "_currentBet",
          "type": "uint256"
        },
        {
          "internalType": "uint256",
          "name": "_currentPlayerIndex",
          "type": "uint256"
        },
        {
          "internalType": "uint256",
          "name": "_bettingRound",
          "type": "uint256"
        },
        {
          "internalType": "uint256",
          "name": "_communityCardsRevealed",
          "type": "uint256"
        },
        {
          "internalType": "uint256",
          "name": "_dealerPosition",
          "type": "uint256"
        }
      ],
      "stateMutability": "view",
      "type": "function"
    },
    {
      "inputs": [],
      "name": "getGameStats",
      "outputs": [
        {
          "internalType": "uint256",
          "name": "totalGames",
          "type": "uint256"
        },
        {
          "internalType": "uint256",
          "name": "totalPot",
          "type": "uint256"
        },
        {
          "internalType": "uint256",
          "name": "averagePot",
          "type": "uint256"
        },
        {
          "internalType": "uint256",
          "name": "activePlayers",
          "type": "uint256"
        }
      ],
      "stateMutability": "view",
      "type": "function"
    },
    {
      "inputs": [],
      "name": "getMyEncryptedCards",
      "outputs": [
        {
          "internalType": "uint256[2]",
          "name": "encryptedCards",
          "type": "uint256[2]"
        },
        {
          "internalType": "uint256[2]",
          "name": "nonces",
          "type": "uint256[2]"
        }
      ],
      "stateMutability": "view",
      "type": "function"
    },
    {
      "inputs": [],
      "name": "getPlayerCount",
      "outputs": [
        {
          "internalType": "uint256",
          "name": "",
          "type": "uint256"
        }
      ],
      "stateMutability": "view",
      "type": "function"
    },
    {
      "inputs": [
        {
          "internalType": "uint256",
          "name": "playerIndex",
          "type": "uint256"
        }
      ],
      "name": "getPlayerInfo",
      "outputs": [
        {
          "internalType": "address",
          "name": "playerAddress",
          "type": "address"
        },
        {
          "internalType": "bool",
          "name": "isActive",
          "type": "bool"
        },
        {
          "internalType": "bool",
          "name": "hasFolded",
          "type": "bool"
        },
        {
          "internalType": "uint256",
          "name": "encryptedBetAmount",
          "type": "uint256"
        },
        {
          "internalType": "uint256",
          "name": "publicKey",
          "type": "uint256"
        }
      ],
      "stateMutability": "view",
      "type": "function"
    },
    {
      "inputs": [
        {
          "internalType": "uint256",
          "name": "playerPublicKey",
          "type": "uint256"
        }
      ],
      "name": "joinGame",
      "outputs": [],
      "stateMutability": "nonpayable",
      "type": "function"
    },
    {
      "inputs": [],
      "name": "maxPlayers",
      "outputs": [
        {
          "internalType": "uint256",
          "name": "",
          "type": "uint256"
        }
      ],
      "stateMutability": "view",
      "type": "function"
    },
    {
      "inputs": [],
      "name": "minPlayers",
      "outputs": [
        {
          "internalType": "uint256",
          "name": "",
          "type": "uint256"
        }
      ],
      "stateMutability": "view",
      "type": "function"
    },
    {
      "inputs": [
        {
          "internalType": "uint256",
          "name": "encryptedBetAmount",
          "type": "uint256"
        }
      ],
      "name": "placeBet",
      "outputs": [],
      "stateMutability": "payable",
      "type": "function"
    },
    {
      "inputs": [
        {
          "internalType": "uint256",
          "name": "",
          "type": "uint256"
        }
      ],
      "name": "players",
      "outputs": [
        {
          "internalType": "address",
          "name": "playerAddress",
          "type": "address"
        },
        {
          "components": [
            {
              "internalType": "uint256",
              "name": "encryptedValue",
              "type": "uint256"
            },
            {
              "internalType": "uint256",
              "name": "nonce",
              "type": "uint256"
            },
            {
              "internalType": "bool",
              "name": "isRevealed",
              "type": "bool"
            }
          ],
          "internalType": "struct PokerGame.EncryptedCard",
          "name": "card1",
          "type": "tuple"
        },
        {
          "components": [
            {
              "internalType": "uint256",
              "name": "encryptedValue",
              "type": "uint256"
            },
            {
              "internalType": "uint256",
              "name": "nonce",
              "type": "uint256"
            },
            {
              "internalType": "bool",
              "name": "isRevealed",
              "type": "bool"
            }
          ],
          "internalType": "struct PokerGame.EncryptedCard",
          "name": "card2",
          "type": "tuple"
        },
        {
          "components": [
            {
              "internalType": "uint256",
              "name": "encryptedAmount",
              "type": "uint256"
            },
            {
              "internalType": "uint256",
              "name": "nonce",
              "type": "uint256"
            },
            {
              "internalType": "bool",
              "name": "isRevealed",
              "type": "bool"
            }
          ],
          "internalType": "struct PokerGame.EncryptedBet",
          "name": "encryptedBet",
          "type": "tuple"
        },
        {
          "internalType": "bool",
          "name": "isActive",
          "type": "bool"
        },
        {
          "internalType": "bool",
          "name": "hasFolded",
          "type": "bool"
        },
        {
          "internalType": "uint256",
          "name": "publicKey",
          "type": "uint256"
        }
      ],
      "stateMutability": "view",
      "type": "function"
    },
    {
      "inputs": [],
      "name": "pot",
      "outputs": [
        {
          "internalType": "uint256",
          "name": "",
          "type": "uint256"
        }
      ],
      "stateMutability": "view",
      "type": "function"
    },
    {
      "inputs": [],
      "name": "resetGame",
      "outputs": [],
      "stateMutability": "nonpayable",
      "type": "function"
    },
    {
      "inputs": [],
      "name": "smallBlind",
      "outputs": [
        {
          "internalType": "uint256",
          "name": "",
          "type": "uint256"
        }
      ],
      "stateMutability": "view",
      "type": "function"
    },
    {
      "inputs": [],
      "name": "systemPublicKey",
      "outputs": [
        {
          "internalType": "uint256",
          "name": "",
          "type": "uint256"
        }
      ],
      "stateMutability": "view",
      "type": "function"
    }
  ],
  "bytecode": "0x6080604052600660015560028055600060035560006004556000600555600060065560006007556000600855662386f26fc1000060095566470de4df820000600a556000601a556000601e553480156200005857600080fd5b50600080546001600160a81b031916336101000260ff19161790556040805142602080830191909152448284015282518083038401815260609092019092528051910120601b55620000a9620000af565b620001d1565b6040805160348082526106a0820190925290602082016106808036833750508151620000e392601d9250602001906200012c565b5060005b6034811015620001295780601d828154811062000108576200010862000193565b600091825260209091200155806200012081620001a9565b915050620000e7565b50565b8280548282559060005260206000209081019282156200016a579160200282015b828111156200016a5782518255916020019190600101906200014d565b50620001789291506200017c565b5090565b5b808211156200017857600081556001016200017d565b634e487b7160e01b600052603260045260246000fd5b600060018201620001ca57634e487b7160e01b600052601160045260246000fd5b5060010190565b61258f80620001e16000396000f3fe6080604052600436106101e35760003560e01c80639dd88d3411610102578063e255015611610095578063eff02a0711610064578063eff02a0714610558578063f6b12f2814610595578063f71d96cb146105d2578063fb9bdab41461060557600080fd5b8063e2550156146104b5578063e684f46a146104cb578063ea17532e146104e0578063efaa55a01461053857600080fd5b8063bb7c0761116100d1578063bb7c076114610443578063c2e5220614610463578063d1f9c24d14610478578063d504cb651461049f57600080fd5b80639dd88d34146103c8578063a5ff67f3146103f8578063ab3b11041461040e578063bb4722191461042e57600080fd5b80634c2412a21161017a5780636d881e1f116101495780636d881e1f1461036257806370984e971461037857806374844e191461038e5780639cf8ccfd146103b257600080fd5b80634c2412a2146102f357806356f282a11461030957806365b1dafa1461032c5780636987c0a21461034c57600080fd5b8063219406bd116101b6578063219406bd1461029b5780632770c895146102b15780633eed5845146102c75780634ba2363a146102dd57600080fd5b806310fe7c48146101e85780631746bd1b146101fd5780631aff30dd146102425780631dc70a3c14610277575b600080fd5b6101fb6101f6366004612246565b61061b565b005b34801561020957600080fd5b50600054600354600454600554600654600754601a546008546040516102399860ff169796959493929190612297565b60405180910390f35b34801561024e57600080fd5b50610257610903565b604080519485526020850193909352918301526060820152608001610239565b34801561028357600080fd5b5061028d601e5481565b604051908152602001610239565b3480156102a757600080fd5b5061028d60085481565b3480156102bd57600080fd5b5061028d60025481565b3480156102d357600080fd5b5061028d60075481565b3480156102e957600080fd5b5061028d60045481565b3480156102ff57600080fd5b5061028d60015481565b34801561031557600080fd5b5061031e610945565b604051610239929190612304565b34801561033857600080fd5b5061028d610347366004612246565b610a39565b34801561035857600080fd5b5061028d601b5481565b34801561036e57600080fd5b5061028d60001981565b34801561038457600080fd5b5061028d600a5481565b34801561039a57600080fd5b506103a3610a5a565b60405161023993929190612342565b3480156103be57600080fd5b5061028d60035481565b3480156103d457600080fd5b506103e86103e336600461236d565b610b37565b6040519015158152602001610239565b34801561040457600080fd5b5061028d601a5481565b34801561041a57600080fd5b506103e8610429366004612396565b610bc8565b34801561043a57600080fd5b506101fb610bd2565b34801561044f57600080fd5b5061028d61045e366004612396565b610cb7565b34801561046f57600080fd5b5060035461028d565b34801561048457600080fd5b506000546104929060ff1681565b60405161023991906123b8565b3480156104ab57600080fd5b5061028d60055481565b3480156104c157600080fd5b5061028d60095481565b3480156104d757600080fd5b506101fb610cd0565b3480156104ec57600080fd5b506105006104fb366004612246565b610e48565b604080516001600160a01b0390961686529315156020860152911515928401929092526060830191909152608082015260a001610239565b34801561054457600080fd5b506101fb610553366004612246565b610f90565b34801561056457600080fd5b50610578610573366004612246565b611403565b604080519384526020840192909252151590820152606001610239565b3480156105a157600080fd5b506000546105ba9061010090046001600160a01b031681565b6040516001600160a01b039091168152602001610239565b3480156105de57600080fd5b506105f26105ed366004612246565b61142d565b60405161023997969594939291906123c6565b34801561061157600080fd5b5061028d60065481565b600260005460ff1660048111156106345761063461225f565b1461067d5760405162461bcd60e51b81526020600482015260146024820152734e6f7420696e2062657474696e6720706861736560601b60448201526064015b60405180910390fd5b610686336114f7565b6106a25760405162461bcd60e51b815260040161067490612457565b600034116106fc5760405162461bcd60e51b815260206004820152602160248201527f42657420616d6f756e74206d7573742062652067726561746572207468616e206044820152600360fc1b6064820152608401610674565b8060000361074c5760405162461bcd60e51b815260206004820152601c60248201527f496e76616c696420656e637279707465642062657420616d6f756e74000000006044820152606401610674565b600061075733611565565b9050600654811461079a5760405162461bcd60e51b815260206004820152600d60248201526c2737ba103cb7bab9103a3ab93760991b6044820152606401610674565b601c81815481106107ad576107ad612483565b90600052602060002090600c0201600a0160019054906101000a900460ff161561080d5760405162461bcd60e51b8152602060048201526011602482015270141b185e595c881a185cc8199bdb191959607a1b6044820152606401610674565b6040518060600160405280838152602001423460405160200161083a929190918252602082015260400190565b60408051601f19818403018152919052805160209182012082526000910152601c80548390811061086d5761086d612483565b600091825260208083208451600c9390930201600781019290925583015160088201556040909201516009909201805460ff191692151592909217909155600480543492906108bd9084906124af565b909155505060405134815233907f43e08d78302cdf9c94e1ffd293c2a3696139ee41cf3199b6f5eed9c7f6cc60909060200160405180910390a26108ff611603565b5050565b6000806000808360045460006003541161091e576001610922565b6003545b60045461092f91906124d8565b6109376116b0565b935093509350935090919293565b61094d612169565b610955612169565b61095e336114f7565b61097a5760405162461bcd60e51b815260040161067490612457565b600061098533611565565b9050601c818154811061099a5761099a612483565b600091825260209091206001600c9092020101548352601c8054829081106109c4576109c4612483565b6000918252602091829020600c909102016004015490840152601c8054829081106109f1576109f1612483565b600091825260209091206002600c9092020101548252601c805482908110610a1b57610a1b612483565b6000918252602091829020600c909102016005015490830152509091565b601d8181548110610a4957600080fd5b600091825260209091200154905081565b610a62612187565b610a6a612187565b6000805b6005811015610b2c57601a54811015610ae757600b8160058110610a9457610a94612483565b6003020154848260058110610aab57610aab612483565b6020020152600b8160058110610ac357610ac3612483565b6003020160010154838260058110610add57610add612483565b6020020152610b1a565b6000848260058110610afb57610afb612483565b60200201526000838260058110610b1457610b14612483565b60200201525b80610b24816124ec565b915050610a6e565b50601a549050909192565b6000600260005460ff166004811115610b5257610b5261225f565b14610b5f57506000919050565b610b68826114f7565b610b7457506000919050565b6000610b7f83611565565b905060065481148015610bc15750601c8181548110610ba057610ba0612483565b90600052602060002090600c0201600a0160019054906101000a900460ff16155b9392505050565b8082115b92915050565b60005461010090046001600160a01b03163314610c315760405162461bcd60e51b815260206004820152601960248201527f4f6e6c792067616d65206f776e65722063616e207265736574000000000000006044820152606401610674565b600460005460ff166004811115610c4a57610c4a61225f565b14610c8b5760405162461bcd60e51b815260206004820152601160248201527011d85b59481b9bdd08199a5b9a5cda1959607a1b6044820152606401610674565b610c97601c60006121a5565b60006003819055600481905560058190556006819055805460ff19169055565b6000600019610cc683856124af565b610bc19190612505565b600260005460ff166004811115610ce957610ce961225f565b14610d2d5760405162461bcd60e51b81526020600482015260146024820152734e6f7420696e2062657474696e6720706861736560601b6044820152606401610674565b610d36336114f7565b610d525760405162461bcd60e51b815260040161067490612457565b6000610d5d33611565565b90506006548114610da05760405162461bcd60e51b815260206004820152600d60248201526c2737ba103cb7bab9103a3ab93760991b6044820152606401610674565b6001601c8281548110610db557610db5612483565b90600052602060002090600c0201600a0160016101000a81548160ff0219169083151502179055506000601c8281548110610df257610df2612483565b600091825260208220600c9190910201600a01805460ff19169215159290921790915560405133917fffd9118163057444bb5e3809d9d4297382740f1b9dcc7b984deb91c9dc39aea191a2610e45611603565b50565b6000806000806000601c805490508610610e9b5760405162461bcd60e51b8152602060048201526014602482015273092dcecc2d8d2c840e0d8c2f2cae440d2dcc8caf60631b6044820152606401610674565b601c8681548110610eae57610eae612483565b60009182526020909120600c9091020154601c80546001600160a01b039092169188908110610edf57610edf612483565b90600052602060002090600c0201600a0160009054906101000a900460ff16601c8881548110610f1157610f11612483565b90600052602060002090600c0201600a0160019054906101000a900460ff16601c8981548110610f4357610f43612483565b90600052602060002090600c020160070160000154601c8a81548110610f6b57610f6b612483565b90600052602060002090600c0201600b01549450945094509450945091939590929450565b6000805460ff166004811115610fa857610fa861225f565b14610ff55760405162461bcd60e51b815260206004820152601a60248201527f47616d65206e6f7420616363657074696e6720706c61796572730000000000006044820152606401610674565b600154600354106110375760405162461bcd60e51b815260206004820152600c60248201526b11d85b59481a5cc8199d5b1b60a21b6044820152606401610674565b611040336114f7565b156110865760405162461bcd60e51b8152602060048201526016602482015275506c6179657220616c726561647920696e2067616d6560501b6044820152606401610674565b806000036110cb5760405162461bcd60e51b8152602060048201526012602482015271496e76616c6964207075626c6963206b657960701b6044820152606401610674565b60006110d860008361171b565b905060006110e760008461171b565b905060006110f660008561171b565b6040805160e081018252338152602080820187815282840187815260608401868152600160808601818152600060a0880181815260c089018f8152601c8054958601815583528951600c9095027f0e4562a10381dec21b205ed72637e6b1b523bdd0e4d4d50af5cd23dd4500a211810180546001600160a01b03979097166001600160a01b031990971696909617909555965180517f0e4562a10381dec21b205ed72637e6b1b523bdd0e4d4d50af5cd23dd4500a212860155808901517f0e4562a10381dec21b205ed72637e6b1b523bdd0e4d4d50af5cd23dd4500a2138601558a01517f0e4562a10381dec21b205ed72637e6b1b523bdd0e4d4d50af5cd23dd4500a2148501805491151560ff19928316179055955180517f0e4562a10381dec21b205ed72637e6b1b523bdd0e4d4d50af5cd23dd4500a215860155808901517f0e4562a10381dec21b205ed72637e6b1b523bdd0e4d4d50af5cd23dd4500a2168601558a01517f0e4562a10381dec21b205ed72637e6b1b523bdd0e4d4d50af5cd23dd4500a21785018054911515918816919091179055935180517f0e4562a10381dec21b205ed72637e6b1b523bdd0e4d4d50af5cd23dd4500a218850155968701517f0e4562a10381dec21b205ed72637e6b1b523bdd0e4d4d50af5cd23dd4500a21984015595909701517f0e4562a10381dec21b205ed72637e6b1b523bdd0e4d4d50af5cd23dd4500a21a82018054911515919094161790925594517f0e4562a10381dec21b205ed72637e6b1b523bdd0e4d4d50af5cd23dd4500a21b82018054965115156101000261ff00199215159290921661ffff199097169690961717909455517f0e4562a10381dec21b205ed72637e6b1b523bdd0e4d4d50af5cd23dd4500a21c9093019290925560038054939450909291611399836124ec565b9190505550336001600160a01b03167f3330a6773675f31f62070870f40379f8c6d42e3761410011a4dfc42b18043d2f60016003546113d89190612519565b60405190815260200160405180910390a2600254600354106113fc576113fc61179d565b5050505050565b600b816005811061141357600080fd5b600302018054600182015460029092015490925060ff1683565b601c818154811061143d57600080fd5b6000918252602091829020600c909102018054604080516060808201835260018501548252600285015482870152600385015460ff908116151583850152835180830185526004870154815260058701548189015260068701548216151581860152845192830185526007870154835260088701549783019790975260098601548116151593820193909352600a850154600b909501546001600160a01b0390941696509094939092818316926101009092049091169087565b6000805b601c5481101561155c57826001600160a01b0316601c828154811061152257611522612483565b60009182526020909120600c90910201546001600160a01b03160361154a5750600192915050565b80611554816124ec565b9150506114fb565b50600092915050565b6000805b601c548110156115c757826001600160a01b0316601c828154811061159057611590612483565b60009182526020909120600c90910201546001600160a01b0316036115b55792915050565b806115bf816124ec565b915050611569565b5060405162461bcd60e51b815260206004820152601060248201526f141b185e595c881b9bdd08199bdd5b9960821b6044820152606401610674565b6000600354600654600161161791906124af565b6116219190612505565b905060005b601c828154811061163957611639612483565b90600052602060002090600c0201600a0160019054906101000a900460ff168015611665575060035481105b15611696576003546116788360016124af565b6116829190612505565b91508061168e816124ec565b915050611626565b60068290556116a3611824565b156108ff576108ff6118af565b600080805b601c5481101561171557601c81815481106116d2576116d2612483565b90600052602060002090600c0201600a0160019054906101000a900460ff1661170357816116ff816124ec565b9250505b8061170d816124ec565b9150506116b5565b50919050565b611741604051806060016040528060008152602001600081526020016000151581525090565b604051806060016040528061175685856118e6565b81526020014285604051602001611777929190918252602082015260400190565b60408051808303601f190181529190528051602091820120825260009101529392505050565b60025460035410156117e65760405162461bcd60e51b81526020600482015260126024820152714e6f7420656e6f75676820706c617965727360701b6044820152606401610674565b6000805460ff191660011781556040517f762f260439bb4be3ef6e4dc2786e2e7bd187d3d80b79057d7a424fe98563e3359190a161182261192a565b565b60008080805b601c5481101561189857601c818154811061184757611847612483565b90600052602060002090600c0201600a0160019054906101000a900460ff166118865782611874816124ec565b9350508180611882906124ec565b9250505b80611890816124ec565b91505061182a565b506001821115806118a857508181145b9250505090565b600360075410156118d1576118c2611b3e565b6000805460ff19166002179055565b6000805460ff19166003179055611822611ca5565b6040805160208101849052908101829052426060820152600090600019906080016040516020818303038152906040528051906020012060001c610bc19190612505565b611932611e6f565b60005b601c54811015611b23576000611949611f76565b90506000611955611f76565b905061198582601c858154811061196e5761196e612483565b90600052602060002090600c0201600b015461171b565b601c848154811061199857611998612483565b90600052602060002090600c0201600101600082015181600001556020820151816001015560408201518160020160006101000a81548160ff0219169083151502179055509050506119f781601c858154811061196e5761196e612483565b601c8481548110611a0a57611a0a612483565b60009182526020918290208351600c929092020160048101919091559082015160058201556040909101516006909101805460ff1916911515919091179055601c805484908110611a5d57611a5d612483565b6000918252602091829020600c90910201546040518481526001600160a01b03909116917ff73f14558ccaff4071145ab228d065987160ede0a18fc5c20db56038c24080e4910160405180910390a2601c8381548110611abf57611abf612483565b6000918252602091829020600c90910201546040518381526001600160a01b03909116917ff73f14558ccaff4071145ab228d065987160ede0a18fc5c20db56038c24080e4910160405180910390a250508080611b1b906124ec565b915050611935565b50611b2c612003565b6000805460ff19166002178155600755565b600754600003611be35760005b6003811015611bdb576000611b5e611f76565b9050611b6c81601b5461171b565b600b8360058110611b7f57611b7f612483565b825160039190910291909101908155602082015160018201556040909101516002909101805460ff1916911515919091179055601a8054906000611bc2836124ec565b9190505550508080611bd3906124ec565b915050611b4b565b506001600755565b600754600103611c44576000611bf7611f76565b9050611c0581601b5461171b565b80516014556020810151601555604001516016805460ff1916911515919091179055601a8054906000611c37836124ec565b9091555050600260075550565b600754600203611822576000611c58611f76565b9050611c6681601b5461171b565b80516017556020810151601855604001516019805460ff1916911515919091179055601a8054906000611c98836124ec565b9091555050600360075550565b6000805460ff19166003178155611cba6116b0565b67ffffffffffffffff811115611cd257611cd261252c565b604051908082528060200260200182016040528015611cfb578160200160208202803683370190505b5090506000805b601c54811015611dbe57601c8181548110611d1f57611d1f612483565b90600052602060002090600c0201600a0160019054906101000a900460ff16611dac57601c8181548110611d5557611d55612483565b60009182526020909120600c909102015483516001600160a01b0390911690849084908110611d8657611d86612483565b6001600160a01b039092166020928302919091019091015281611da8816124ec565b9250505b80611db6816124ec565b915050611d02565b50600082600081518110611dd457611dd4612483565b6020908102919091010151600480546000805460ff19168317815591829055600582905560068290556007829055601a919091556003546008549293509091611e1e9060016124af565b611e289190612505565b6008556040518181526001600160a01b038316907f27223f8d1d659564536abdf661d810b8a16ca4f6c69034f2a73b74b0853d98299060200160405180910390a250505050565b601d54600090611e8190600190612519565b90505b8015611f6e576000611e978260016124af565b604080514260208201524491810191909152606081018490526080016040516020818303038152906040528051906020012060001c611ed69190612505565b9050601d8181548110611eeb57611eeb612483565b9060005260206000200154601d8381548110611f0957611f09612483565b9060005260206000200154601d8481548110611f2757611f27612483565b906000526020600020016000601d8581548110611f4657611f46612483565b6000918252602090912001929092559190915550819050611f6681612542565b915050611e84565b506000601e55565b601d54601e5460009111611fc45760405162461bcd60e51b81526020600482015260156024820152744e6f206d6f726520636172647320696e206465636b60581b6044820152606401610674565b6000601d601e5481548110611fdb57611fdb612483565b6000918252602082200154601e80549193509091611ff8836124ec565b909155509092915050565b601c5460021161182257601c54600854600091906120229060016124af565b61202c9190612505565b9050612047600954601c838154811061196e5761196e612483565b601c828154811061205a5761205a612483565b600091825260208083208451600c9390930201600781019290925583015160088201556040909201516009928301805460ff1916911515919091179055905460048054919290916120ac9084906124af565b9091555050601c54600854600091906120c69060026124af565b6120d09190612505565b90506120eb600a54601c838154811061196e5761196e612483565b601c82815481106120fe576120fe612483565b90600052602060002090600c0201600701600082015181600001556020820151816001015560408201518160020160006101000a81548160ff021916908315150217905550905050600a546004600082825461215a91906124af565b9091555050600a546005555050565b60405180604001604052806002906020820280368337509192915050565b6040518060a001604052806005906020820280368337509192915050565b50805460008255600c0290600052602060002090810190610e4591905b808211156122425780546001600160a01b03191681556000600182018190556002820181905560038201805460ff1990811690915560048301829055600583018290556006830180548216905560078301829055600883018290556009830180549091169055600a8201805461ffff19169055600b820155600c016121c2565b5090565b60006020828403121561225857600080fd5b5035919050565b634e487b7160e01b600052602160045260246000fd5b6005811061229357634e487b7160e01b600052602160045260246000fd5b9052565b61010081016122a6828b612275565b602082019890985260408101969096526060860194909452608085019290925260a084015260c083015260e090910152919050565b8060005b60028110156122fe5781518452602093840193909101906001016122df565b50505050565b6080810161231282856122db565b610bc160408301846122db565b8060005b60058110156122fe578151845260209384019390910190600101612323565b6101608101612351828661231f565b61235e60a083018561231f565b82610140830152949350505050565b60006020828403121561237f57600080fd5b81356001600160a01b0381168114610bc157600080fd5b600080604083850312156123a957600080fd5b50508035926020909101359150565b60208101610bcc8284612275565b6001600160a01b03881681526101a081016123fa602083018980518252602080820151908301526040908101511515910152565b86516080830152602087015160a08301526040870151151560c0830152855160e083015260208601516101008301526040860151151561012083015293151561014082015291151561016083015261018090910152949350505050565b602080825260129082015271506c61796572206e6f7420696e2067616d6560701b604082015260600190565b634e487b7160e01b600052603260045260246000fd5b634e487b7160e01b600052601160045260246000fd5b80820180821115610bcc57610bcc612499565b634e487b7160e01b600052601260045260246000fd5b6000826124e7576124e76124c2565b500490565b6000600182016124fe576124fe612499565b5060010190565b600082612514576125146124c2565b500690565b81810381811115610bcc57610bcc612499565b634e487b7160e01b600052604160045260246000fd5b60008161255157612551612499565b50600019019056fea264697066735822122077ef4faa7204c81dc8ec59765f8759f465b205fbe8ab7ddc1b43ddc2b8dddba464736f6c63430008130033",
  "linkReferences": {},
  "deployedLinkReferences": {}
}